{
  "contractName": "Certidigital",
  "abi": [
    {
      "inputs": [],
      "payable": false,
      "stateMutability": "nonpayable",
      "type": "constructor"
    },
    {
      "anonymous": false,
      "inputs": [
        {
          "indexed": true,
          "internalType": "address",
          "name": "_from",
          "type": "address"
        },
        {
          "indexed": true,
          "internalType": "address",
          "name": "_to",
          "type": "address"
        },
        {
          "components": [
            {
              "internalType": "string",
              "name": "titulo",
              "type": "string"
            },
            {
              "internalType": "address",
              "name": "emisor",
              "type": "address"
            },
            {
              "internalType": "address",
              "name": "receptor",
              "type": "address"
            },
            {
              "internalType": "string",
              "name": "fechaEmision",
              "type": "string"
            },
            {
              "internalType": "string",
              "name": "fechaExpiracion",
              "type": "string"
            },
            {
              "internalType": "string",
              "name": "urlCover",
              "type": "string"
            }
          ],
          "indexed": false,
          "internalType": "struct Certidigital.Certificado",
          "name": "_certificado",
          "type": "tuple"
        }
      ],
      "name": "Certificar",
      "type": "event"
    },
    {
      "constant": true,
      "inputs": [
        {
          "internalType": "string",
          "name": "",
          "type": "string"
        }
      ],
      "name": "certificados",
      "outputs": [
        {
          "internalType": "string",
          "name": "titulo",
          "type": "string"
        },
        {
          "internalType": "address",
          "name": "emisor",
          "type": "address"
        },
        {
          "internalType": "address",
          "name": "receptor",
          "type": "address"
        },
        {
          "internalType": "string",
          "name": "fechaEmision",
          "type": "string"
        },
        {
          "internalType": "string",
          "name": "fechaExpiracion",
          "type": "string"
        },
        {
          "internalType": "string",
          "name": "urlCover",
          "type": "string"
        }
      ],
      "payable": false,
      "stateMutability": "view",
      "type": "function"
    },
    {
      "constant": false,
      "inputs": [
        {
          "internalType": "address",
          "name": "receptor",
          "type": "address"
        },
        {
          "internalType": "string",
          "name": "titulo",
          "type": "string"
        },
        {
          "internalType": "string",
          "name": "hashFile",
          "type": "string"
        },
        {
          "internalType": "string",
          "name": "fechaEmision",
          "type": "string"
        },
        {
          "internalType": "string",
          "name": "fechaExpiracion",
          "type": "string"
        },
        {
          "internalType": "string",
          "name": "urlCover",
          "type": "string"
        }
      ],
      "name": "crearCertificado",
      "outputs": [
        {
          "internalType": "bool",
          "name": "",
          "type": "bool"
        }
      ],
      "payable": false,
      "stateMutability": "nonpayable",
      "type": "function"
    },
    {
      "constant": true,
      "inputs": [
        {
          "internalType": "string",
          "name": "hashFile",
          "type": "string"
        }
      ],
      "name": "obtenerCertificado",
      "outputs": [
        {
          "components": [
            {
              "internalType": "string",
              "name": "titulo",
              "type": "string"
            },
            {
              "internalType": "address",
              "name": "emisor",
              "type": "address"
            },
            {
              "internalType": "address",
              "name": "receptor",
              "type": "address"
            },
            {
              "internalType": "string",
              "name": "fechaEmision",
              "type": "string"
            },
            {
              "internalType": "string",
              "name": "fechaExpiracion",
              "type": "string"
            },
            {
              "internalType": "string",
              "name": "urlCover",
              "type": "string"
            }
          ],
          "internalType": "struct Certidigital.Certificado",
          "name": "",
          "type": "tuple"
        }
      ],
      "payable": false,
      "stateMutability": "view",
      "type": "function"
    },
    {
      "constant": true,
      "inputs": [],
      "name": "getOwner",
      "outputs": [
        {
          "internalType": "address",
          "name": "",
          "type": "address"
        }
      ],
      "payable": false,
      "stateMutability": "view",
      "type": "function"
    }
  ],
  "bytecode": "0x608060405234801561001057600080fd5b5033600160006101000a81548173ffffffffffffffffffffffffffffffffffffffff021916908373ffffffffffffffffffffffffffffffffffffffff1602179055506111cd806100616000396000f3fe608060405234801561001057600080fd5b506004361061004c5760003560e01c8063390cd85714610051578063893d20e814610081578063ba4af8711461009f578063fc7afe2d146100cf575b600080fd5b61006b60048036036100669190810190610d1f565b610104565b6040516100789190610ff8565b60405180910390f35b610089610470565b6040516100969190610f25565b60405180910390f35b6100b960048036036100b49190810190610bdd565b61049a565b6040516100c69190610f40565b60405180910390f35b6100e960048036036100e49190810190610cde565b610727565b6040516100fb96959493929190610f5b565b60405180910390f35b61010c610a19565b60008260405161011c9190610f0e565b90815260200160405180910390206040518060c0016040529081600082018054600181600116156101000203166002900480601f0160208091040260200160405190810160405280929190818152602001828054600181600116156101000203166002900480156101ce5780601f106101a3576101008083540402835291602001916101ce565b820191906000526020600020905b8154815290600101906020018083116101b157829003601f168201915b505050505081526020016001820160009054906101000a900473ffffffffffffffffffffffffffffffffffffffff1673ffffffffffffffffffffffffffffffffffffffff1673ffffffffffffffffffffffffffffffffffffffff1681526020016002820160009054906101000a900473ffffffffffffffffffffffffffffffffffffffff1673ffffffffffffffffffffffffffffffffffffffff1673ffffffffffffffffffffffffffffffffffffffff168152602001600382018054600181600116156101000203166002900480601f01602080910402602001604051908101604052809291908181526020018280546001816001161561010002031660029004801561031c5780601f106102f15761010080835404028352916020019161031c565b820191906000526020600020905b8154815290600101906020018083116102ff57829003601f168201915b50505050508152602001600482018054600181600116156101000203166002900480601f0160208091040260200160405190810160405280929190818152602001828054600181600116156101000203166002900480156103be5780601f10610393576101008083540402835291602001916103be565b820191906000526020600020905b8154815290600101906020018083116103a157829003601f168201915b50505050508152602001600582018054600181600116156101000203166002900480601f0160208091040260200160405190810160405280929190818152602001828054600181600116156101000203166002900480156104605780601f1061043557610100808354040283529160200191610460565b820191906000526020600020905b81548152906001019060200180831161044357829003601f168201915b5050505050815250509050919050565b6000600160009054906101000a900473ffffffffffffffffffffffffffffffffffffffff16905090565b6000600160009054906101000a900473ffffffffffffffffffffffffffffffffffffffff1673ffffffffffffffffffffffffffffffffffffffff163373ffffffffffffffffffffffffffffffffffffffff161461052c576040517f08c379a000000000000000000000000000000000000000000000000000000000815260040161052390610fd8565b60405180910390fd5b610534610a19565b6040518060c001604052808881526020013373ffffffffffffffffffffffffffffffffffffffff1681526020018973ffffffffffffffffffffffffffffffffffffffff168152602001868152602001858152602001848152509050806000876040516105a09190610f0e565b908152602001604051809103902060008201518160000190805190602001906105ca929190610a7b565b5060208201518160010160006101000a81548173ffffffffffffffffffffffffffffffffffffffff021916908373ffffffffffffffffffffffffffffffffffffffff16021790555060408201518160020160006101000a81548173ffffffffffffffffffffffffffffffffffffffff021916908373ffffffffffffffffffffffffffffffffffffffff1602179055506060820151816003019080519060200190610675929190610a7b565b506080820151816004019080519060200190610692929190610a7b565b5060a08201518160050190805190602001906106af929190610a7b565b509050508773ffffffffffffffffffffffffffffffffffffffff163373ffffffffffffffffffffffffffffffffffffffff167f782f2a1c9800a01bf10d31b4c65db4cd645f0418bd66627cfef72c8442843971836040516107109190610ff8565b60405180910390a360019150509695505050505050565b600081805160208101820180518482526020830160208501208183528095505050505050600091509050806000018054600181600116156101000203166002900480601f0160208091040260200160405190810160405280929190818152602001828054600181600116156101000203166002900480156107e95780601f106107be576101008083540402835291602001916107e9565b820191906000526020600020905b8154815290600101906020018083116107cc57829003601f168201915b5050505050908060010160009054906101000a900473ffffffffffffffffffffffffffffffffffffffff16908060020160009054906101000a900473ffffffffffffffffffffffffffffffffffffffff1690806003018054600181600116156101000203166002900480601f0160208091040260200160405190810160405280929190818152602001828054600181600116156101000203166002900480156108d35780601f106108a8576101008083540402835291602001916108d3565b820191906000526020600020905b8154815290600101906020018083116108b657829003601f168201915b505050505090806004018054600181600116156101000203166002900480601f0160208091040260200160405190810160405280929190818152602001828054600181600116156101000203166002900480156109715780601f1061094657610100808354040283529160200191610971565b820191906000526020600020905b81548152906001019060200180831161095457829003601f168201915b505050505090806005018054600181600116156101000203166002900480601f016020809104026020016040519081016040528092919081815260200182805460018160011615610100020316600290048015610a0f5780601f106109e457610100808354040283529160200191610a0f565b820191906000526020600020905b8154815290600101906020018083116109f257829003601f168201915b5050505050905086565b6040518060c0016040528060608152602001600073ffffffffffffffffffffffffffffffffffffffff168152602001600073ffffffffffffffffffffffffffffffffffffffff1681526020016060815260200160608152602001606081525090565b828054600181600116156101000203166002900490600052602060002090601f016020900481019282601f10610abc57805160ff1916838001178555610aea565b82800160010185558215610aea579182015b82811115610ae9578251825591602001919060010190610ace565b5b509050610af79190610afb565b5090565b610b1d91905b80821115610b19576000816000905550600101610b01565b5090565b90565b600081359050610b2f81611173565b92915050565b600082601f830112610b4657600080fd5b8135610b59610b5482611047565b61101a565b91508082526020830160208301858383011115610b7557600080fd5b610b80838284611120565b50505092915050565b600082601f830112610b9a57600080fd5b8135610bad610ba882611073565b61101a565b91508082526020830160208301858383011115610bc957600080fd5b610bd4838284611120565b50505092915050565b60008060008060008060c08789031215610bf657600080fd5b6000610c0489828a01610b20565b965050602087013567ffffffffffffffff811115610c2157600080fd5b610c2d89828a01610b89565b955050604087013567ffffffffffffffff811115610c4a57600080fd5b610c5689828a01610b89565b945050606087013567ffffffffffffffff811115610c7357600080fd5b610c7f89828a01610b89565b935050608087013567ffffffffffffffff811115610c9c57600080fd5b610ca889828a01610b89565b92505060a087013567ffffffffffffffff811115610cc557600080fd5b610cd189828a01610b89565b9150509295509295509295565b600060208284031215610cf057600080fd5b600082013567ffffffffffffffff811115610d0a57600080fd5b610d1684828501610b35565b91505092915050565b600060208284031215610d3157600080fd5b600082013567ffffffffffffffff811115610d4b57600080fd5b610d5784828501610b89565b91505092915050565b610d69816110e2565b82525050565b610d78816110e2565b82525050565b610d87816110f4565b82525050565b6000610d98826110aa565b610da281856110d7565b9350610db281856020860161112f565b80840191505092915050565b6000610dc98261109f565b610dd381856110b5565b9350610de381856020860161112f565b610dec81611162565b840191505092915050565b6000610e028261109f565b610e0c81856110c6565b9350610e1c81856020860161112f565b610e2581611162565b840191505092915050565b6000610e3d6013836110c6565b91507f43616c6c6572206973206e6f74206f776e6572000000000000000000000000006000830152602082019050919050565b600060c0830160008301518482036000860152610e8d8282610dbe565b9150506020830151610ea26020860182610d60565b506040830151610eb56040860182610d60565b5060608301518482036060860152610ecd8282610dbe565b91505060808301518482036080860152610ee78282610dbe565b91505060a083015184820360a0860152610f018282610dbe565b9150508091505092915050565b6000610f1a8284610d8d565b915081905092915050565b6000602082019050610f3a6000830184610d6f565b92915050565b6000602082019050610f556000830184610d7e565b92915050565b600060c0820190508181036000830152610f758189610df7565b9050610f846020830188610d6f565b610f916040830187610d6f565b8181036060830152610fa38186610df7565b90508181036080830152610fb78185610df7565b905081810360a0830152610fcb8184610df7565b9050979650505050505050565b60006020820190508181036000830152610ff181610e30565b9050919050565b600060208201905081810360008301526110128184610e70565b905092915050565b6000604051905081810181811067ffffffffffffffff8211171561103d57600080fd5b8060405250919050565b600067ffffffffffffffff82111561105e57600080fd5b601f19601f8301169050602081019050919050565b600067ffffffffffffffff82111561108a57600080fd5b601f19601f8301169050602081019050919050565b600081519050919050565b600081519050919050565b600082825260208201905092915050565b600082825260208201905092915050565b600081905092915050565b60006110ed82611100565b9050919050565b60008115159050919050565b600073ffffffffffffffffffffffffffffffffffffffff82169050919050565b82818337600083830152505050565b60005b8381101561114d578082015181840152602081019050611132565b8381111561115c576000848401525b50505050565b6000601f19601f8301169050919050565b61117c816110e2565b811461118757600080fd5b5056fea365627a7a72315820a85a7a83904ec57dfac7ef447c82df41309d7541d9d2fd23ee753e2774b219326c6578706572696d656e74616cf564736f6c63430005100040",
  "source": "// SPDX-License-Identifier: MIT\r\npragma solidity >=0.4.22 <0.9.0;\r\npragma experimental ABIEncoderV2;\r\n\r\ncontract Certidigital {\r\n\r\n  struct Certificado {\r\n    string titulo;\r\n    address emisor;\r\n    address receptor;\r\n    string fechaEmision;\r\n    string fechaExpiracion;\r\n    string urlCover;\r\n  }\r\n\r\n  //hash pdf - certificado\r\n  mapping(string => Certificado) public certificados;\r\n  address private owner;\r\n\r\n  event Certificar(address indexed _from, address indexed _to, Certificado _certificado);\r\n\r\n\r\n  modifier soloOwner() {\r\n    require(msg.sender == owner, \"Caller is not owner\");\r\n    _;\r\n  }\r\n\r\n  constructor() public {\r\n    owner = msg.sender;\r\n  }\r\n\r\n  function crearCertificado(address receptor,\r\n    string memory titulo,\r\n    string memory hashFile,\r\n    string memory fechaEmision,\r\n    string memory fechaExpiracion,\r\n    string memory urlCover)\r\n  public soloOwner returns (bool) {\r\n    //Verificar si existe\r\n    Certificado memory certificado = Certificado(titulo, msg.sender, receptor, fechaEmision, fechaExpiracion, urlCover);\r\n    certificados[hashFile] = certificado;\r\n    emit Certificar(msg.sender, receptor, certificado);\r\n    return true;\r\n  }\r\n\r\n  function obtenerCertificado(string memory hashFile) public view returns (Certificado memory){\r\n    return certificados[hashFile];\r\n  }\r\n\r\n  function getOwner() external view returns (address) {\r\n    return owner;\r\n  }\r\n}\r\n",
  "sourcePath": "C:/Users/Martin Alexis/Documents/Gitlab/certidigital/contracts/Certidigital.sol",
  "compiler": {
    "name": "solc",
    "version": "0.5.16+commit.9c3226ce.Emscripten.clang"
  },
  "schemaVersion": "3.4.0",
  "updatedAt": "2021-06-12T22:23:59.586Z",
  "networkType": "ethereum",
  "devdoc": {
    "methods": {}
  },
  "userdoc": {
    "methods": {}
  }
}