{
  "contractName": "Certidigital",
  "abi": [
    {
      "inputs": [],
      "payable": false,
      "stateMutability": "nonpayable",
      "type": "constructor"
    },
    {
      "anonymous": false,
      "inputs": [
        {
          "indexed": true,
          "internalType": "address",
          "name": "_from",
          "type": "address"
        },
        {
          "indexed": true,
          "internalType": "address",
          "name": "_to",
          "type": "address"
        },
        {
          "components": [
            {
              "internalType": "string",
              "name": "titulo",
              "type": "string"
            },
            {
              "internalType": "address",
              "name": "emisor",
              "type": "address"
            },
            {
              "internalType": "address",
              "name": "receptor",
              "type": "address"
            },
            {
              "internalType": "string",
              "name": "fechaEmision",
              "type": "string"
            },
            {
              "internalType": "string",
              "name": "fechaExpiracion",
              "type": "string"
            }
          ],
          "indexed": false,
          "internalType": "struct Certidigital.Certificado",
          "name": "_certificado",
          "type": "tuple"
        }
      ],
      "name": "Certificar",
      "type": "event"
    },
    {
      "constant": true,
      "inputs": [
        {
          "internalType": "string",
          "name": "",
          "type": "string"
        }
      ],
      "name": "certificados",
      "outputs": [
        {
          "internalType": "string",
          "name": "titulo",
          "type": "string"
        },
        {
          "internalType": "address",
          "name": "emisor",
          "type": "address"
        },
        {
          "internalType": "address",
          "name": "receptor",
          "type": "address"
        },
        {
          "internalType": "string",
          "name": "fechaEmision",
          "type": "string"
        },
        {
          "internalType": "string",
          "name": "fechaExpiracion",
          "type": "string"
        }
      ],
      "payable": false,
      "stateMutability": "view",
      "type": "function"
    },
    {
      "constant": false,
      "inputs": [
        {
          "internalType": "address",
          "name": "receptor",
          "type": "address"
        },
        {
          "internalType": "string",
          "name": "titulo",
          "type": "string"
        },
        {
          "internalType": "string",
          "name": "hashFile",
          "type": "string"
        },
        {
          "internalType": "string",
          "name": "fechaEmision",
          "type": "string"
        },
        {
          "internalType": "string",
          "name": "fechaExpiracion",
          "type": "string"
        }
      ],
      "name": "crearCertificado",
      "outputs": [
        {
          "internalType": "bool",
          "name": "",
          "type": "bool"
        }
      ],
      "payable": false,
      "stateMutability": "nonpayable",
      "type": "function"
    },
    {
      "constant": true,
      "inputs": [
        {
          "internalType": "string",
          "name": "hashFile",
          "type": "string"
        }
      ],
      "name": "obtenerCertificado",
      "outputs": [
        {
          "components": [
            {
              "internalType": "string",
              "name": "titulo",
              "type": "string"
            },
            {
              "internalType": "address",
              "name": "emisor",
              "type": "address"
            },
            {
              "internalType": "address",
              "name": "receptor",
              "type": "address"
            },
            {
              "internalType": "string",
              "name": "fechaEmision",
              "type": "string"
            },
            {
              "internalType": "string",
              "name": "fechaExpiracion",
              "type": "string"
            }
          ],
          "internalType": "struct Certidigital.Certificado",
          "name": "",
          "type": "tuple"
        }
      ],
      "payable": false,
      "stateMutability": "view",
      "type": "function"
    },
    {
      "constant": true,
      "inputs": [],
      "name": "getOwner",
      "outputs": [
        {
          "internalType": "address",
          "name": "",
          "type": "address"
        }
      ],
      "payable": false,
      "stateMutability": "view",
      "type": "function"
    }
  ],
  "bytecode": "0x608060405234801561001057600080fd5b5033600160006101000a81548173ffffffffffffffffffffffffffffffffffffffff021916908373ffffffffffffffffffffffffffffffffffffffff160217905550611008806100616000396000f3fe608060405234801561001057600080fd5b506004361061004c5760003560e01c8063390cd85714610051578063893d20e814610081578063cd8a45c81461009f578063fc7afe2d146100cf575b600080fd5b61006b60048036036100669190810190610b89565b610103565b6040516100789190610e33565b60405180910390f35b6100896103cd565b6040516100969190610d75565b60405180910390f35b6100b960048036036100b49190810190610a71565b6103f7565b6040516100c69190610d90565b60405180910390f35b6100e960048036036100e49190810190610b48565b610660565b6040516100fa959493929190610dab565b60405180910390f35b61010b6108b4565b60008260405161011b9190610d5e565b90815260200160405180910390206040518060a0016040529081600082018054600181600116156101000203166002900480601f0160208091040260200160405190810160405280929190818152602001828054600181600116156101000203166002900480156101cd5780601f106101a2576101008083540402835291602001916101cd565b820191906000526020600020905b8154815290600101906020018083116101b057829003601f168201915b505050505081526020016001820160009054906101000a900473ffffffffffffffffffffffffffffffffffffffff1673ffffffffffffffffffffffffffffffffffffffff1673ffffffffffffffffffffffffffffffffffffffff1681526020016002820160009054906101000a900473ffffffffffffffffffffffffffffffffffffffff1673ffffffffffffffffffffffffffffffffffffffff1673ffffffffffffffffffffffffffffffffffffffff168152602001600382018054600181600116156101000203166002900480601f01602080910402602001604051908101604052809291908181526020018280546001816001161561010002031660029004801561031b5780601f106102f05761010080835404028352916020019161031b565b820191906000526020600020905b8154815290600101906020018083116102fe57829003601f168201915b50505050508152602001600482018054600181600116156101000203166002900480601f0160208091040260200160405190810160405280929190818152602001828054600181600116156101000203166002900480156103bd5780601f10610392576101008083540402835291602001916103bd565b820191906000526020600020905b8154815290600101906020018083116103a057829003601f168201915b5050505050815250509050919050565b6000600160009054906101000a900473ffffffffffffffffffffffffffffffffffffffff16905090565b6000600160009054906101000a900473ffffffffffffffffffffffffffffffffffffffff1673ffffffffffffffffffffffffffffffffffffffff163373ffffffffffffffffffffffffffffffffffffffff1614610489576040517f08c379a000000000000000000000000000000000000000000000000000000000815260040161048090610e13565b60405180910390fd5b6104916108b4565b6040518060a001604052808781526020013373ffffffffffffffffffffffffffffffffffffffff1681526020018873ffffffffffffffffffffffffffffffffffffffff168152602001858152602001848152509050806000866040516104f79190610d5e565b9081526020016040518091039020600082015181600001908051906020019061052192919061090f565b5060208201518160010160006101000a81548173ffffffffffffffffffffffffffffffffffffffff021916908373ffffffffffffffffffffffffffffffffffffffff16021790555060408201518160020160006101000a81548173ffffffffffffffffffffffffffffffffffffffff021916908373ffffffffffffffffffffffffffffffffffffffff16021790555060608201518160030190805190602001906105cc92919061090f565b5060808201518160040190805190602001906105e992919061090f565b509050508673ffffffffffffffffffffffffffffffffffffffff163373ffffffffffffffffffffffffffffffffffffffff167f7726f499e63407dc07f04991c41bfd774b808a355cec9ccea9c586ae1e95da7f8360405161064a9190610e33565b60405180910390a3600191505095945050505050565b600081805160208101820180518482526020830160208501208183528095505050505050600091509050806000018054600181600116156101000203166002900480601f0160208091040260200160405190810160405280929190818152602001828054600181600116156101000203166002900480156107225780601f106106f757610100808354040283529160200191610722565b820191906000526020600020905b81548152906001019060200180831161070557829003601f168201915b5050505050908060010160009054906101000a900473ffffffffffffffffffffffffffffffffffffffff16908060020160009054906101000a900473ffffffffffffffffffffffffffffffffffffffff1690806003018054600181600116156101000203166002900480601f01602080910402602001604051908101604052809291908181526020018280546001816001161561010002031660029004801561080c5780601f106107e15761010080835404028352916020019161080c565b820191906000526020600020905b8154815290600101906020018083116107ef57829003601f168201915b505050505090806004018054600181600116156101000203166002900480601f0160208091040260200160405190810160405280929190818152602001828054600181600116156101000203166002900480156108aa5780601f1061087f576101008083540402835291602001916108aa565b820191906000526020600020905b81548152906001019060200180831161088d57829003601f168201915b5050505050905085565b6040518060a0016040528060608152602001600073ffffffffffffffffffffffffffffffffffffffff168152602001600073ffffffffffffffffffffffffffffffffffffffff16815260200160608152602001606081525090565b828054600181600116156101000203166002900490600052602060002090601f016020900481019282601f1061095057805160ff191683800117855561097e565b8280016001018555821561097e579182015b8281111561097d578251825591602001919060010190610962565b5b50905061098b919061098f565b5090565b6109b191905b808211156109ad576000816000905550600101610995565b5090565b90565b6000813590506109c381610fae565b92915050565b600082601f8301126109da57600080fd5b81356109ed6109e882610e82565b610e55565b91508082526020830160208301858383011115610a0957600080fd5b610a14838284610f5b565b50505092915050565b600082601f830112610a2e57600080fd5b8135610a41610a3c82610eae565b610e55565b91508082526020830160208301858383011115610a5d57600080fd5b610a68838284610f5b565b50505092915050565b600080600080600060a08688031215610a8957600080fd5b6000610a97888289016109b4565b955050602086013567ffffffffffffffff811115610ab457600080fd5b610ac088828901610a1d565b945050604086013567ffffffffffffffff811115610add57600080fd5b610ae988828901610a1d565b935050606086013567ffffffffffffffff811115610b0657600080fd5b610b1288828901610a1d565b925050608086013567ffffffffffffffff811115610b2f57600080fd5b610b3b88828901610a1d565b9150509295509295909350565b600060208284031215610b5a57600080fd5b600082013567ffffffffffffffff811115610b7457600080fd5b610b80848285016109c9565b91505092915050565b600060208284031215610b9b57600080fd5b600082013567ffffffffffffffff811115610bb557600080fd5b610bc184828501610a1d565b91505092915050565b610bd381610f1d565b82525050565b610be281610f1d565b82525050565b610bf181610f2f565b82525050565b6000610c0282610ee5565b610c0c8185610f12565b9350610c1c818560208601610f6a565b80840191505092915050565b6000610c3382610eda565b610c3d8185610ef0565b9350610c4d818560208601610f6a565b610c5681610f9d565b840191505092915050565b6000610c6c82610eda565b610c768185610f01565b9350610c86818560208601610f6a565b610c8f81610f9d565b840191505092915050565b6000610ca7601383610f01565b91507f43616c6c6572206973206e6f74206f776e6572000000000000000000000000006000830152602082019050919050565b600060a0830160008301518482036000860152610cf78282610c28565b9150506020830151610d0c6020860182610bca565b506040830151610d1f6040860182610bca565b5060608301518482036060860152610d378282610c28565b91505060808301518482036080860152610d518282610c28565b9150508091505092915050565b6000610d6a8284610bf7565b915081905092915050565b6000602082019050610d8a6000830184610bd9565b92915050565b6000602082019050610da56000830184610be8565b92915050565b600060a0820190508181036000830152610dc58188610c61565b9050610dd46020830187610bd9565b610de16040830186610bd9565b8181036060830152610df38185610c61565b90508181036080830152610e078184610c61565b90509695505050505050565b60006020820190508181036000830152610e2c81610c9a565b9050919050565b60006020820190508181036000830152610e4d8184610cda565b905092915050565b6000604051905081810181811067ffffffffffffffff82111715610e7857600080fd5b8060405250919050565b600067ffffffffffffffff821115610e9957600080fd5b601f19601f8301169050602081019050919050565b600067ffffffffffffffff821115610ec557600080fd5b601f19601f8301169050602081019050919050565b600081519050919050565b600081519050919050565b600082825260208201905092915050565b600082825260208201905092915050565b600081905092915050565b6000610f2882610f3b565b9050919050565b60008115159050919050565b600073ffffffffffffffffffffffffffffffffffffffff82169050919050565b82818337600083830152505050565b60005b83811015610f88578082015181840152602081019050610f6d565b83811115610f97576000848401525b50505050565b6000601f19601f8301169050919050565b610fb781610f1d565b8114610fc257600080fd5b5056fea365627a7a72315820f58c991692ec8afc272933c8c08924ad503015425e65c7863eeff82dffc004716c6578706572696d656e74616cf564736f6c63430005100040",
  "source": "// SPDX-License-Identifier: MIT\r\npragma solidity >=0.4.22 <0.9.0;\r\npragma experimental ABIEncoderV2;\r\n\r\ncontract Certidigital {\r\n\r\n  struct Certificado {\r\n    string titulo;\r\n    address emisor;\r\n    address receptor;\r\n    string fechaEmision;\r\n    string fechaExpiracion;\r\n  }\r\n\r\n  //hash pdf - certificado\r\n  mapping(string => Certificado) public certificados;\r\n  address private owner;\r\n\r\n  event Certificar(address indexed _from, address indexed _to, Certificado _certificado);\r\n\r\n\r\n  modifier soloOwner() {\r\n    require(msg.sender == owner, \"Caller is not owner\");\r\n    _;\r\n  }\r\n\r\n  constructor() public {\r\n    owner = msg.sender;\r\n  }\r\n\r\n\r\n\r\n  function crearCertificado(address receptor,\r\n    string memory titulo,\r\n    string memory hashFile,\r\n    string memory fechaEmision,\r\n    string memory fechaExpiracion)\r\n  public soloOwner returns (bool) {\r\n    //Verificar si existe\r\n    Certificado memory certificado = Certificado(titulo, msg.sender, receptor, fechaEmision, fechaExpiracion);\r\n    certificados[hashFile] = certificado;\r\n    emit Certificar(msg.sender, receptor, certificado);\r\n    return true;\r\n  }\r\n\r\n  function obtenerCertificado(string memory hashFile) public view returns (Certificado memory){\r\n    return certificados[hashFile];\r\n  }\r\n\r\n  function getOwner() external view returns (address) {\r\n    return owner;\r\n  }\r\n}\r\n",
  "sourcePath": "D:/GitHub/certidigital/contracts/Certidigital.sol",
  "compiler": {
    "name": "solc",
    "version": "0.5.16+commit.9c3226ce.Emscripten.clang"
  },
  "schemaVersion": "3.3.3",
  "updatedAt": "2020-12-29T21:50:31.836Z",
  "networkType": "ethereum",
  "devdoc": {
    "methods": {}
  },
  "userdoc": {
    "methods": {}
  }
}