{
  "contractName": "Certidigital",
  "abi": [
    {
      "anonymous": false,
      "inputs": [
        {
          "indexed": true,
          "internalType": "address",
          "name": "_from",
          "type": "address"
        },
        {
          "indexed": true,
          "internalType": "address",
          "name": "_to",
          "type": "address"
        },
        {
          "components": [
            {
              "internalType": "uint256",
              "name": "id",
              "type": "uint256"
            },
            {
              "internalType": "address",
              "name": "emisor",
              "type": "address"
            },
            {
              "internalType": "address",
              "name": "receptor",
              "type": "address"
            },
            {
              "internalType": "string",
              "name": "hashFile",
              "type": "string"
            },
            {
              "internalType": "string",
              "name": "fechaEmision",
              "type": "string"
            },
            {
              "internalType": "string",
              "name": "fechaExpiracion",
              "type": "string"
            }
          ],
          "indexed": false,
          "internalType": "struct Certidigital.Certificado",
          "name": "_certificado",
          "type": "tuple"
        }
      ],
      "name": "Certificar",
      "type": "event"
    },
    {
      "constant": true,
      "inputs": [],
      "name": "certificadoCount",
      "outputs": [
        {
          "internalType": "uint256",
          "name": "",
          "type": "uint256"
        }
      ],
      "payable": false,
      "stateMutability": "view",
      "type": "function"
    },
    {
      "constant": true,
      "inputs": [
        {
          "internalType": "uint256",
          "name": "",
          "type": "uint256"
        }
      ],
      "name": "certificados",
      "outputs": [
        {
          "internalType": "uint256",
          "name": "id",
          "type": "uint256"
        },
        {
          "internalType": "address",
          "name": "emisor",
          "type": "address"
        },
        {
          "internalType": "address",
          "name": "receptor",
          "type": "address"
        },
        {
          "internalType": "string",
          "name": "hashFile",
          "type": "string"
        },
        {
          "internalType": "string",
          "name": "fechaEmision",
          "type": "string"
        },
        {
          "internalType": "string",
          "name": "fechaExpiracion",
          "type": "string"
        }
      ],
      "payable": false,
      "stateMutability": "view",
      "type": "function"
    },
    {
      "constant": false,
      "inputs": [
        {
          "internalType": "address",
          "name": "receptor",
          "type": "address"
        },
        {
          "internalType": "string",
          "name": "hashFile",
          "type": "string"
        },
        {
          "internalType": "string",
          "name": "fechaEmision",
          "type": "string"
        },
        {
          "internalType": "string",
          "name": "fechaExpiracion",
          "type": "string"
        }
      ],
      "name": "crearCertificado",
      "outputs": [
        {
          "internalType": "bool",
          "name": "",
          "type": "bool"
        }
      ],
      "payable": true,
      "stateMutability": "payable",
      "type": "function"
    },
    {
      "constant": true,
      "inputs": [
        {
          "internalType": "uint256",
          "name": "idCertificado",
          "type": "uint256"
        }
      ],
      "name": "obtenerCertificado",
      "outputs": [
        {
          "components": [
            {
              "internalType": "uint256",
              "name": "id",
              "type": "uint256"
            },
            {
              "internalType": "address",
              "name": "emisor",
              "type": "address"
            },
            {
              "internalType": "address",
              "name": "receptor",
              "type": "address"
            },
            {
              "internalType": "string",
              "name": "hashFile",
              "type": "string"
            },
            {
              "internalType": "string",
              "name": "fechaEmision",
              "type": "string"
            },
            {
              "internalType": "string",
              "name": "fechaExpiracion",
              "type": "string"
            }
          ],
          "internalType": "struct Certidigital.Certificado",
          "name": "",
          "type": "tuple"
        }
      ],
      "payable": false,
      "stateMutability": "view",
      "type": "function"
    }
  ],
  "bytecode": "0x60806040526000805534801561001457600080fd5b50610e2f806100246000396000f3fe60806040526004361061003f5760003560e01c80631a7012d514610044578063357f068f146100815780638e59bb48146100b1578063a9444b40146100f3575b600080fd5b34801561005057600080fd5b5061006b60048036036100669190810190610a52565b61011e565b6040516100789190610bea565b60405180910390f35b61009b600480360361009691908101906109a7565b6103e7565b6040516100a89190610bcf565b60405180910390f35b3480156100bd57600080fd5b506100d860048036036100d39190810190610a52565b6105d8565b6040516100ea96959493929190610c27565b60405180910390f35b3480156100ff57600080fd5b5061010861081c565b6040516101159190610c0c565b60405180910390f35b610126610822565b600160008381526020019081526020016000206040518060c0016040529081600082015481526020016001820160009054906101000a900473ffffffffffffffffffffffffffffffffffffffff1673ffffffffffffffffffffffffffffffffffffffff1673ffffffffffffffffffffffffffffffffffffffff1681526020016002820160009054906101000a900473ffffffffffffffffffffffffffffffffffffffff1673ffffffffffffffffffffffffffffffffffffffff1673ffffffffffffffffffffffffffffffffffffffff168152602001600382018054600181600116156101000203166002900480601f0160208091040260200160405190810160405280929190818152602001828054600181600116156101000203166002900480156102935780601f1061026857610100808354040283529160200191610293565b820191906000526020600020905b81548152906001019060200180831161027657829003601f168201915b50505050508152602001600482018054600181600116156101000203166002900480601f0160208091040260200160405190810160405280929190818152602001828054600181600116156101000203166002900480156103355780601f1061030a57610100808354040283529160200191610335565b820191906000526020600020905b81548152906001019060200180831161031857829003601f168201915b50505050508152602001600582018054600181600116156101000203166002900480601f0160208091040260200160405190810160405280929190818152602001828054600181600116156101000203166002900480156103d75780601f106103ac576101008083540402835291602001916103d7565b820191906000526020600020905b8154815290600101906020018083116103ba57829003601f168201915b5050505050815250509050919050565b60008060008154809291906001019190505550610402610822565b6040518060c0016040528060005481526020013373ffffffffffffffffffffffffffffffffffffffff1681526020018773ffffffffffffffffffffffffffffffffffffffff1681526020018681526020018581526020018481525090508060016000805481526020019081526020016000206000820151816000015560208201518160010160006101000a81548173ffffffffffffffffffffffffffffffffffffffff021916908373ffffffffffffffffffffffffffffffffffffffff16021790555060408201518160020160006101000a81548173ffffffffffffffffffffffffffffffffffffffff021916908373ffffffffffffffffffffffffffffffffffffffff1602179055506060820151816003019080519060200190610528929190610884565b506080820151816004019080519060200190610545929190610884565b5060a0820151816005019080519060200190610562929190610884565b509050508573ffffffffffffffffffffffffffffffffffffffff163373ffffffffffffffffffffffffffffffffffffffff167fe8f14a4e85d53e45ceccb3122755c46f88c622f6b3171c31716bfee37a54fd16836040516105c39190610bea565b60405180910390a36001915050949350505050565b60016020528060005260406000206000915090508060000154908060010160009054906101000a900473ffffffffffffffffffffffffffffffffffffffff16908060020160009054906101000a900473ffffffffffffffffffffffffffffffffffffffff1690806003018054600181600116156101000203166002900480601f0160208091040260200160405190810160405280929190818152602001828054600181600116156101000203166002900480156106d65780601f106106ab576101008083540402835291602001916106d6565b820191906000526020600020905b8154815290600101906020018083116106b957829003601f168201915b505050505090806004018054600181600116156101000203166002900480601f0160208091040260200160405190810160405280929190818152602001828054600181600116156101000203166002900480156107745780601f1061074957610100808354040283529160200191610774565b820191906000526020600020905b81548152906001019060200180831161075757829003601f168201915b505050505090806005018054600181600116156101000203166002900480601f0160208091040260200160405190810160405280929190818152602001828054600181600116156101000203166002900480156108125780601f106107e757610100808354040283529160200191610812565b820191906000526020600020905b8154815290600101906020018083116107f557829003601f168201915b5050505050905086565b60005481565b6040518060c0016040528060008152602001600073ffffffffffffffffffffffffffffffffffffffff168152602001600073ffffffffffffffffffffffffffffffffffffffff1681526020016060815260200160608152602001606081525090565b828054600181600116156101000203166002900490600052602060002090601f016020900481019282601f106108c557805160ff19168380011785556108f3565b828001600101855582156108f3579182015b828111156108f25782518255916020019190600101906108d7565b5b5090506109009190610904565b5090565b61092691905b8082111561092257600081600090555060010161090a565b5090565b90565b60008135905061093881610dbe565b92915050565b600082601f83011261094f57600080fd5b813561096261095d82610cca565b610c9d565b9150808252602083016020830185838301111561097e57600080fd5b610989838284610d6b565b50505092915050565b6000813590506109a181610dd5565b92915050565b600080600080608085870312156109bd57600080fd5b60006109cb87828801610929565b945050602085013567ffffffffffffffff8111156109e857600080fd5b6109f48782880161093e565b935050604085013567ffffffffffffffff811115610a1157600080fd5b610a1d8782880161093e565b925050606085013567ffffffffffffffff811115610a3a57600080fd5b610a468782880161093e565b91505092959194509250565b600060208284031215610a6457600080fd5b6000610a7284828501610992565b91505092915050565b610a8481610d23565b82525050565b610a9381610d23565b82525050565b610aa281610d35565b82525050565b6000610ab382610cf6565b610abd8185610d01565b9350610acd818560208601610d7a565b610ad681610dad565b840191505092915050565b6000610aec82610cf6565b610af68185610d12565b9350610b06818560208601610d7a565b610b0f81610dad565b840191505092915050565b600060c083016000830151610b326000860182610bb1565b506020830151610b456020860182610a7b565b506040830151610b586040860182610a7b565b5060608301518482036060860152610b708282610aa8565b91505060808301518482036080860152610b8a8282610aa8565b91505060a083015184820360a0860152610ba48282610aa8565b9150508091505092915050565b610bba81610d61565b82525050565b610bc981610d61565b82525050565b6000602082019050610be46000830184610a99565b92915050565b60006020820190508181036000830152610c048184610b1a565b905092915050565b6000602082019050610c216000830184610bc0565b92915050565b600060c082019050610c3c6000830189610bc0565b610c496020830188610a8a565b610c566040830187610a8a565b8181036060830152610c688186610ae1565b90508181036080830152610c7c8185610ae1565b905081810360a0830152610c908184610ae1565b9050979650505050505050565b6000604051905081810181811067ffffffffffffffff82111715610cc057600080fd5b8060405250919050565b600067ffffffffffffffff821115610ce157600080fd5b601f19601f8301169050602081019050919050565b600081519050919050565b600082825260208201905092915050565b600082825260208201905092915050565b6000610d2e82610d41565b9050919050565b60008115159050919050565b600073ffffffffffffffffffffffffffffffffffffffff82169050919050565b6000819050919050565b82818337600083830152505050565b60005b83811015610d98578082015181840152602081019050610d7d565b83811115610da7576000848401525b50505050565b6000601f19601f8301169050919050565b610dc781610d23565b8114610dd257600080fd5b50565b610dde81610d61565b8114610de957600080fd5b5056fea365627a7a7231582043bc0bee9ee41ed4b5fe8084328270713bdd51baa7d33872bcd3e272c477acb06c6578706572696d656e74616cf564736f6c63430005100040",
  "source": "// SPDX-License-Identifier: MIT\r\npragma solidity >=0.4.22 <0.9.0;\r\npragma experimental ABIEncoderV2;\r\n\r\n\r\ncontract Certidigital {\r\n  uint public certificadoCount = 0;\r\n\r\n  struct Certificado {\r\n    uint id;\r\n    address emisor;\r\n    address receptor;\r\n    string hashFile;\r\n    string fechaEmision;\r\n    string fechaExpiracion;\r\n  }\r\n\r\n  //id, certificado\r\n  mapping(uint => Certificado) public certificados;\r\n\r\n  event Certificar(address indexed _from, address indexed _to, Certificado _certificado);\r\n\r\n  function crearCertificado(address receptor,\r\n    string memory hashFile,\r\n    string memory fechaEmision,\r\n    string memory fechaExpiracion)\r\n  public payable returns (bool) {\r\n    certificadoCount++;\r\n    Certificado memory certificado = Certificado(certificadoCount, msg.sender, receptor, hashFile, fechaEmision, fechaExpiracion);\r\n    certificados[certificadoCount] = certificado;\r\n    emit Certificar(msg.sender, receptor, certificado);\r\n    return true;\r\n  }\r\n\r\n  function obtenerCertificado(uint idCertificado) public view returns (Certificado memory){\r\n    return certificados[idCertificado];\r\n  }\r\n\r\n}\r\n",
  "sourcePath": "D:/GitHub/LearningSolidity/contracts/Certidigital.sol",
  "compiler": {
    "name": "solc",
    "version": "0.5.16+commit.9c3226ce.Emscripten.clang"
  },
  "schemaVersion": "3.3.3",
  "updatedAt": "2020-12-29T02:34:25.022Z",
  "networkType": "ethereum",
  "devdoc": {
    "methods": {}
  },
  "userdoc": {
    "methods": {}
  }
}