{
  "contractName": "Certidigital",
  "abi": [
    {
      "anonymous": false,
      "inputs": [
        {
          "indexed": true,
          "internalType": "address",
          "name": "_from",
          "type": "address"
        },
        {
          "indexed": true,
          "internalType": "address",
          "name": "_to",
          "type": "address"
        },
        {
          "components": [
            {
              "internalType": "address",
              "name": "emisor",
              "type": "address"
            },
            {
              "internalType": "string",
              "name": "tituloCertificado",
              "type": "string"
            }
          ],
          "indexed": false,
          "internalType": "struct Certidigital.Certificado",
          "name": "_certificado",
          "type": "tuple"
        }
      ],
      "name": "Certificar",
      "type": "event"
    },
    {
      "constant": false,
      "inputs": [
        {
          "internalType": "address",
          "name": "receptor",
          "type": "address"
        },
        {
          "internalType": "string",
          "name": "tituloCertificado",
          "type": "string"
        }
      ],
      "name": "crearCertificado",
      "outputs": [],
      "payable": false,
      "stateMutability": "nonpayable",
      "type": "function"
    },
    {
      "constant": true,
      "inputs": [
        {
          "internalType": "address",
          "name": "direccion",
          "type": "address"
        }
      ],
      "name": "getCertificado",
      "outputs": [
        {
          "components": [
            {
              "internalType": "address",
              "name": "emisor",
              "type": "address"
            },
            {
              "internalType": "string",
              "name": "tituloCertificado",
              "type": "string"
            }
          ],
          "internalType": "struct Certidigital.Certificado",
          "name": "",
          "type": "tuple"
        }
      ],
      "payable": false,
      "stateMutability": "view",
      "type": "function"
    }
  ],
  "bytecode": "0x608060405234801561001057600080fd5b506106d2806100206000396000f3fe608060405234801561001057600080fd5b50600436106100365760003560e01c80635b08e4a81461003b578063a8546ff314610057575b600080fd5b61005560048036036100509190810190610483565b610087565b005b610071600480360361006c919081019061045a565b6101cc565b60405161007e919061055c565b60405180910390f35b61008f61031c565b60405180604001604052803373ffffffffffffffffffffffffffffffffffffffff168152602001838152509050806000808573ffffffffffffffffffffffffffffffffffffffff1673ffffffffffffffffffffffffffffffffffffffff16815260200190815260200160002060008201518160000160006101000a81548173ffffffffffffffffffffffffffffffffffffffff021916908373ffffffffffffffffffffffffffffffffffffffff160217905550602082015181600101908051906020019061015e92919061034c565b509050508273ffffffffffffffffffffffffffffffffffffffff163373ffffffffffffffffffffffffffffffffffffffff167fb2397f325b5267fe02afdfef719b593276b295c087fbc525860227b738ca8ffd836040516101bf919061055c565b60405180910390a3505050565b6101d461031c565b6000808373ffffffffffffffffffffffffffffffffffffffff1673ffffffffffffffffffffffffffffffffffffffff1681526020019081526020016000206040518060400160405290816000820160009054906101000a900473ffffffffffffffffffffffffffffffffffffffff1673ffffffffffffffffffffffffffffffffffffffff1673ffffffffffffffffffffffffffffffffffffffff168152602001600182018054600181600116156101000203166002900480601f01602080910402602001604051908101604052809291908181526020018280546001816001161561010002031660029004801561030c5780601f106102e15761010080835404028352916020019161030c565b820191906000526020600020905b8154815290600101906020018083116102ef57829003601f168201915b5050505050815250509050919050565b6040518060400160405280600073ffffffffffffffffffffffffffffffffffffffff168152602001606081525090565b828054600181600116156101000203166002900490600052602060002090601f016020900481019282601f1061038d57805160ff19168380011785556103bb565b828001600101855582156103bb579182015b828111156103ba57825182559160200191906001019061039f565b5b5090506103c891906103cc565b5090565b6103ee91905b808211156103ea5760008160009055506001016103d2565b5090565b90565b60008135905061040081610678565b92915050565b600082601f83011261041757600080fd5b813561042a610425826105ab565b61057e565b9150808252602083016020830185838301111561044657600080fd5b610451838284610625565b50505092915050565b60006020828403121561046c57600080fd5b600061047a848285016103f1565b91505092915050565b6000806040838503121561049657600080fd5b60006104a4858286016103f1565b925050602083013567ffffffffffffffff8111156104c157600080fd5b6104cd85828601610406565b9150509250929050565b6104e0816105f3565b82525050565b60006104f1826105d7565b6104fb81856105e2565b935061050b818560208601610634565b61051481610667565b840191505092915050565b600060408301600083015161053760008601826104d7565b506020830151848203602086015261054f82826104e6565b9150508091505092915050565b60006020820190508181036000830152610576818461051f565b905092915050565b6000604051905081810181811067ffffffffffffffff821117156105a157600080fd5b8060405250919050565b600067ffffffffffffffff8211156105c257600080fd5b601f19601f8301169050602081019050919050565b600081519050919050565b600082825260208201905092915050565b60006105fe82610605565b9050919050565b600073ffffffffffffffffffffffffffffffffffffffff82169050919050565b82818337600083830152505050565b60005b83811015610652578082015181840152602081019050610637565b83811115610661576000848401525b50505050565b6000601f19601f8301169050919050565b610681816105f3565b811461068c57600080fd5b5056fea365627a7a723158209bdc63a8e98e00446457093aee08ad75ceeca09c6d884f75b0c067a0fd42c1a56c6578706572696d656e74616cf564736f6c63430005100040",
  "source": "// SPDX-License-Identifier: MIT\r\npragma solidity >=0.4.22 <0.9.0;\r\npragma experimental ABIEncoderV2;\r\n\r\n\r\ncontract Certidigital {\r\n\r\n    struct Certificado {\r\n        address emisor;\r\n        string tituloCertificado;\r\n    }\r\n\r\n    mapping(address => Certificado) certificados;\r\n\r\n    event Certificar(address indexed _from, address indexed _to, Certificado _certificado);\r\n\r\n    function crearCertificado(address receptor, string memory tituloCertificado) public {\r\n        Certificado memory certificado = Certificado(msg.sender, tituloCertificado);\r\n        certificados[receptor] = certificado;\r\n        emit Certificar(msg.sender, receptor, certificado);\r\n    }\r\n\r\n    function getCertificado(address direccion) public view returns (Certificado memory){\r\n        return certificados[direccion];\r\n    }\r\n\r\n}\r\n",
  "sourcePath": "D:/GitHub/LearningSolidity/contracts/Certidigital.sol",
  "compiler": {
    "name": "solc",
    "version": "0.5.16+commit.9c3226ce.Emscripten.clang"
  },
  "schemaVersion": "3.3.3",
  "updatedAt": "2020-12-27T21:44:40.798Z",
  "devdoc": {
    "methods": {}
  },
  "userdoc": {
    "methods": {}
  }
}